:1008630041001100410017004100020041002A002D
:1008730041002B004E001C61303130313939393998
:1008830030533030454E000330303030303030306C
:0B0893003030303030314200180000DF
:1009860012099C120A59120A527F141209C8120936
:06099600FD12027A80F858
:1009FD001205647F641209C81204707F640209C86D
:10027A00900017E06401600302032290002A04F050
:10028A00E4900017F0900013E0FFD394234008D2C3
:10029A00859000277431F0EFD394235008C28590DB
:1002AA0000277430F0E4FFFE7DA07C4190003FE01F
:1002BA00F8A3E0F9A3E0FAA3E0FB1200C6502B90E2
:1002CA000019E004F07006900018E004F0D39000E2
:1002DA0019E09416900018E094004016E4F0A3F098
:1002EA00D2849000287431F08008C2849000287467
:1002FA0030F030970AD2869000257431F08008C217
:10030A00869000257430F012095090002C7430F059
:10031A00900036F0900039F090002AE06401600302
:10032A000203AF900013E0FFD394234008D28590D4
:10033A0000277431F0EFD394235008C28590002728
:10034A007430F0E4FFFE7DA07C4190003FE0F8A30A
:10035A00E0F9A3E0FAA3E0FB1200C6502B900019C3
:10036A00E004F07006900018E004F0D3900019E061
:10037A009416900018E094004016E4F0A3F0D2849A
:10038A009000287431F08008C2849000287430F0FC
:10039A0030970AD2869000257431F08008C2869080
:1003AA0000257430F0900002E064017064F090005F
:1003BA002B04F0900037E0FFB43108D28590002773
:1003CA007431F0EFB43008C2859000277430F09091
:1003DA000038E0FFB43108D2849000287431F0EF7D
:1003EA00B43008C2849000287430F030970AD2865C
:1003FA009000257431F08008C2869000257430F090
:10040A0012095090002C7430F0900036F0900039A8
:10041A00F090002BE06401704C900037E0FFB4319B
:10042A0008D2859000277431F0EFB43008C2859065
:10043A0000277430F0900038E0FFB43108D284907D
:10044A0000287431F0EFB43008C284900028743068
:10045A00F0309709D2869000257431F022C2869036
:06046A0000257430F022B1
:0300230002089F31
:10089F00C0E0C0F0C083C082C0D075D000C000C01F
:1008AF0001C002C003C004C005C006C0071207E79D
:1008BF00D007D006D005D004D003D002D001D0008D
:0B08CF00D0D0D082D083D0F0D0E03237
:1007E700309873C298900011E0242CF582E434000D
:1007F700F583E599F090002CE0FF64417053900079
:1008070011E004F0E0C3940E404CEFB4411D90009A
:1008170036E0B45316900039E0B4450F90001774D2
:1008270001F0E490002BF0900011F090002CE0B460
:10083700411D900036E0B44D16900039E0B4450FE5
:100847009000027401F0E490002AF0900011F0800B
:0C08570000E4900011F0309902C29922D8
:060950007B017A00791C16
:100956001201F26010F5993099FDC299740129F9D6
:05096600E43AFA80EB09
:01096B002269
:070A5200C285C284C28622A6
:10090B00D2A01209B21209B2C2A07F281209C8D212
:10091B00A01209B21209B21209B21209B21209B22B
:06092B001209B20209B23C
:10076600E4900050F09000527402F020A011900026
:1007760052E0FF04F0EF6007E4900051F080EC12C5
:1007860009B21209B21209B21209B21209B2120959
:10079600B21209B21209B21209B230A00690005183
:1007A6007401F09000527402F030A00A900052E0FA
:1007B600FF04F0EF70F3900052E06401601D9000BA
:1007C6001BE025E0FFF0900051E04F90001BF090F9
:1007D6000050E004F0E0C39408408A90001BE0FF5C
:0107E60022F0
:1005640012090BD2A030A0030206519000167402A7
:10057400F020A00A900016E0FF04F0EF70F3900062
:10058400167402F030A00A900016E0FF04F0EF7039
:10059400F312076690003AEFF012076690003CEF02
:1005A400F012076690003BEFF0120766900000EF30
:1005B400F0120766900001EFF0C2A01209B212090E
:1005C400B21209B21209B21209B21209B21209B274
:1005D4001209B21209B2D2A090003CE0FA90003A9B
:1005E400E0FE2AFDA3E0FC2DFD900000E0FB2D9031
:1005F400001AF0900001E090001AF0605090001290
:10060400EEF0900014EAF0900013ECF0900015EB7B
:10061400F090001AE0900001F0900012E0FD75F0F7
:100624000A84243090001DF0ED75F00A84E5F0246E
:1006340030A3F0900013E0FD75F00A84243090009C
:0E0644001FF0ED75F00A84E5F02430A3F022DB
:10099C00758920759850758DFD858D8BE4F587D202
:0609AC00AFD2ACD28E2296
:1009C800AD071FED600BE4FEEEC394FA50F20E8003
:0109D800F727
:0109D90022FB
:1009B200900053E014F0E014F0E014F0E014F0E0E2
:0509C20014F0E014F048
:0109C700220D
:1006DE00AB07AA067C277D1012020BEF2430900088
:1006EE0046F07C277D10AF03AE0212020BAA04ABBC
:1006FE00057C037DE8AF03AE0212020BEF243090AF
:10070E00003DF07C037DE8AF03AE0212020BAA049B
:10071E00AB057C007D64AF03AE0212020BEF2430FA
:10072E00A3F07C007D64AF03AE0212020BAA04ABF1
:10073E00057C007D0AAF03AE0212020BEF2430904F
:10074E000045F07C007D0AAF03AE0212020BAB0532
:08075E00EB2430900047F0226B
:10000300E4FDFCC3ED9FEC9E5015E4FBFA0BBB0033
:0F001300010AEB64794A70F50DBD00010C80E421
:0100220022BB
:1009EC0000000000000000000000000000000000FB
:0109FC0022D8
:0E0A0D007F307E02EF1FAC0670011E4C70F6AB
:010A1B0022B8
:0F0A1C00D291D2901209ECC2911209ECC2902231
:0C0A4600C291D2901209ECD2910209EC8E
:0E0A2B00A2009291D2901209ECC2900209EC46
:0D0A3900D2901209ECA291C2901209EC2299
:10096C00E4FEEF25E0FF9291D2901209ECC29012B6
:0A097C0009EC0EEEB408EB020A3994
:10093100E4FFD291FEEF25E0FFD2901209ECA291E3
:0E094100E4334FFFC2901209EC0EEEB408E74B
:01094F002285
:1009DA00AD07120A1C7F4612096CAF0512096C0298
:0209EA000A46BB
:1008DA00120A1C7F4712096CE4FD12093174482D73
:1008EA00F582E43400F583EFF0EDB40304D200801E
:1008FA0002C200120A2B0DEDB403DF120A46020AE5
:01090A000DDF
:050A59007F010209DA33
:100470007F011209DA7F101209DA7F087E07120065
:10048000031208DA900048E0FF900043E4F0A3EF85
:10049000F0E0FE900049E07C002400FFEC3E90007C
:1004A00043F0A3EFF0900043E0FCA3E0FDEC120169
:1004B000387B9A7A997999783F12002990003F12F7
:1004C000026E90003FE0FCA3E0FDA3E0FEA3E0FF8E
:1004D0001201711206DE90003FE0FCA3E0FDA3E0F4
:1004E000FEA3E0FF120171AB07AA067C277D101264
:1004F000020B7E037FE8CFCDCFCECCCE12020BEF26
:100500002430900021F07C037DE8AF03AE0212029C
:100510000B7E007F64CFCDCFCECCCE12020BEF246A
:1005200030A3F090003FE0FCA3E0FDA3E0FEA3E0D9
:10053000FF120171AB07AA067C007D6412020B7EDC
:10054000007F0ACFCDCFCECCCE12020BEF2430905D
:100550000023F07C007D0AAF03AE0212020BED24F3
:0405600030A3F022B2
:100026000201E7EC5D046005E8590470030201DD96
:100036001201A8580460F6EC4860F2EC7004FDFE6C
:10004600FF22C860DB2481C85009C39860025006AD
:100056000201E49850CAF582E9294B4A7005AB8241
:100066000201D375F0007C1A7880C3EF9BEE9AEDFF
:1000760099400DC3EF9BFFEE9AFEED99FDE842F025
:10008600DC23ACF0D0E0FFD0E0FED0E0FDAB822078
:10009600E7101BEB60BAEC2CFCEF33FFEE33FEED02
:1000A60033FD0201BFE803F830E705C0F075F00044
:1000B600EF2FFFEE33FEED33FD40B830E7C280AAE6
:1000C60074F8CC6480CCC86480C8F582046043C3ED
:1000D600EB9FF5F0EA9E42F0E99D42F0E89C45F080
:1000E60060305018E5825FFFE582F42B5582FB50A5
:1000F600210ABA001D09B90019088016E5825BFBC2
:10010600E582F42F5582FF50090EBE00050DBD0095
:10011600010CC3EB9FF5F0EA9E42F0E99D42F0E840
:0D0126009C45F06007CC4820E701B3EC22B7
:1001330075F020800E75F010800575F0087D007E47
:10014300007F003392D530D503120260EC334010A8
:10015300EF33FFEE33FEED33FDEC33FCD5F0ED2250
:0E016300E5F0247EA2D513CC92E7CDCEFF228C
:10017100EDD2E7CD33EC3392D524814006E4FFFE86
:10018100FDFC22FCE4CFCECDCC24E0501174FF80E5
:10019100EDC3CC13CCCD13CDCE13CECF13CF047082
:0701A100F030D5DE02026020
:1001A800E9D2E7C933E833F892D5EDD2E7CD33EC9D
:0701B80033FC5002B2D52216
:1001BF00EC30E7100FBF000C0EBE00080DBD0004A1
:1001CF000BEB6014A2D5EB13FCED92E7FD2274FF4D
:1001DF00FCFDFEFF22E480F8A2D574FF13FC7D80A6
:0301EF00E480EFBA
:03000000020652A3
:0C065200787FE4F6D8FD7581200206993F
:1001F200BB010689828A83E0225002E722BBFE020B
:09020200E32289828A83E493223D
:10020B00BC000BBE0029EF8DF084FFADF022E4CCD7
:10021B00F875F008EF2FFFEE33FEEC33FCEE9DECA0
:10022B00984005FCEE9DFE0FD5F0E9E4CEFD22EDE6
:10023B00F8F5F0EE8420D21CFEADF075F008EF2F30
:10024B00FFED33FD4007985006D5F0F222C398FD21
:05025B000FD5F0EA22BE
:0E026000C3E49FFFE49EFEE49DFDE49CFC22AF
:0C026E00ECF0A3EDF0A3EEF0A3EFF02203
:10065E00020986E493A3F8E493A34003F68001F223
:10066E0008DFF48029E493A3F85407240CC8C3339D
:10067E00C4540F4420C8834004F456800146F6DF6C
:10068E00E4800B0102040810204080900863E47E91
:10069E00019360BCA3FF543F30E509541FFEE49361
:1006AE00A360010ECF54C025E060A840B8E493A328
:1006BE00FAE493A3F8E493A3C8C582C8CAC583CA53
:1006CE00F0A3C8C582C8CAC583CADFE9DEE780BE0B
:01089E000059
:00000001FF
