:10000300AB07AA067C277D101200DCEF2430F50B2A
:100013007C277D10AF03AE021200DCAA04AB057C83
:10002300037DE8AF03AE021200DCEF2430F5087C59
:10003300037DE8AF03AE021200DCAA04AB057C002B
:100043007D64AF03AE021200DCEF2430F5097C00BF
:100053007D64AF03AE021200DCAA04AB057C007D15
:100063000AAF03AE021200DCEF2430F50A7C007DF8
:0E0073000AAF03AE021200DCED2430F50C22C1
:10017E00EF4488F5BC00000000E5BC30E4FB53BC46
:09018E00EFAFBDEFFEADBEEDFFC9
:010197002245
:1001C800759DFF43A204E4F5BD75BC807F02FE0265
:0201D8000163C1
:10016300EF1FAA0670011E4A60107C137D88ED1DE7
:0A017300AA0470011C4A60E880F441
:01017D00225F
:1001DA00AD071FED600BE4FEEEC394FA50F20E80F9
:0101EA00F71D
:0101EB0022F1
:10021000AC07AF041CEF60077F5A1201DA80F322AB
:0F022000C2A6D2A5D2A7E580339200C2A7A20042
:01022F0022AC
:1001EC0012022040FBC2A6C2A5C2A78F80D2A7C212
:0201FC00A72238
:07023C00EF4480FF0201EC1A
:1001FE0012022040FBD2A6C2A5C2A78F80D2A7C2F0
:02020E00A72225
:100131007F381201EC7F031201DA7F081201EC7F94
:10014100031201DA7F011201EC7F031201DA7F064B
:100151001201EC7F031201DA7F0C1201EC7F030222
:0201610001DAC1
:10019800AC05AB077F0F1201DAAF0312023CAF04C4
:0801A8001201FE7F02020210A9
:100081007D4C7F401201987D697F411201987D6707
:100091007F421201987D687F431201987D747F44ED
:1000A1001201987D3A7F45120198AD0B7F461201EE
:1000B10098AD087F47120198AD097F48120198ADAC
:1000C1000A7F49120198AD0C7F4A1201987D6C7F1D
:0B00D1004B1201987D787F4C020198D3
:1001B0001201311201C87F141201DAE4FF12017E2C
:0801C00012000312008180F31C
:03000000020230C9
:0C023000787FE4F6D8FD7581200201B053
:1000DC00BC000BBE0029EF8DF084FFADF022E4CC08
:1000EC00F875F008EF2FFFEE33FEEC33FCEE9DECD1
:1000FC00984005FCEE9DFE0FD5F0E9E4CEFD22ED17
:10010C00F8F5F0EE8420D21CFEADF075F008EF2F60
:10011C00FFED33FD4007985006D5F0F222C398FD51
:05012C000FD5F0EA22EE
:00000001FF
