:03000000020114E6
:0C011400787FE4F6D8FD75812902015BBC
:100003000E0C6230303030303030303053303045C9
:0F001300010900010A00010800011A00011B0089
:0B02870012026412029212002680FB9B
:09029200C284C286C280C281222E
:10002600E50A6401702BF50A751A0120A00D12026B
:100036007A20A007D284D286750D3130A007C284FB
:10004600C286750D3012022F751C30752630752943
:1000560030E51AB4011A20A00D12027A20A007D2A8
:1000660084D286750D3130A007C284C286750D30E4
:10007600E50864017051F508751B01E51DB43107EB
:10008600D284750D31C286E51DB43007C284750D64
:1000960030C286E527B43105D280751731E527B41D
:1000A6003005C280751730E528B43105D281751840
:1000B60031E528B43005C28175183012022F751C3F
:1000C60030752630752930E51B64017040E51DB496
:1000D6003107D284750D31C286E51DB43007C2845E
:1000E600750D30C286E527B43105D280751731E526
:1000F60027B43005C280751730E528B43105D281A2
:0E010600751831E528B43005C2817518302215
:030023000201F4E3
:1001F400C0E0C0F0C083C082C0D075D000C000C0D1
:1002040001C002C003C004C005C006C0071201A09B
:10021400D007D006D005D004D003D002D001D0003E
:0B022400D0D0D082D083D0F0D0E032E8
:1001A00030984BC298741C2509F8A699E51C644246
:1001B00070390509E509C3940E4033E51CB44212B9
:1001C000E526B4530DE529B44508750A01E4F51B8D
:1001D000F509E51CB44212E526B44D0DE529B445F8
:1001E00008750801E4F51AF5098000E4F50930996D
:0401F00002C299228C
:0C027A007F147E147DF8DDFEDEFADFF656
:010286002255
:10026400758920759850758DFD858D8BE4F587D241
:06027400AFD2ACD28E22D5
:06022F007B007A00790C4F
:1002350012024B6010F5993099FDC299740129F9A4
:05024500E43AFA80EB31
:01024A002291
:10012000020287E493A3F8E493A34003F68001F26C
:1001300008DFF48029E493A3F85407240CC8C333E0
:10014000C4540F4420C8834004F456800146F6DFAF
:10015000E4800B0102040810204080900003E47E3C
:10016000019360BCA3FF543F30E509541FFEE493A4
:10017000A360010ECF54C025E060A840B8E493A36B
:10018000FAE493A3F8E493A3C8C582C8CAC583CA96
:10019000F0A3C8C582C8CAC583CADFE9DEE780BE4E
:0100220000DD
:10024B00BB010689828A83E0225002E722BBFE02B1
:09025B00E32289828A83E49322E4
:00000001FF
