:03000000020C6F80
:0C0C6F00787FE4F6D8FD758120020CB6F9
:100543002B002D00636D0073656300434400424339
:100553000041420000000000000000000000000015
:100563000080C04020001010000808080808080890
:10057300001010002040C0800000000000000000B8
:1005830000000000000000000000000000000070F8
:100593000C02010000000000000000000000000049
:1005A3000000000000000000000001020C700000C9
:1005B3000000000000000000000000000000000038
:1005C3007F00000080C0E0E0F0F0F0F0E0C0000049
:1005D300000000C0E0F0F0F0F0E0E0C080000000B8
:1005E3007F00000000000000000000000000000089
:1005F3000000070018608387878707030303014010
:10060300F0F0F0F0F040010303030787878783606E
:1006130018000700000000000000000000000000B8
:10062300000000000000000000FF001F274888882A
:10063300888888484848888888888848271F00FF12
:1006430000000000000000000000000000000000A7
:10065300000000000000000000000000030204048A
:1006630008001010101010101010100008040402DD
:100673000300000000000000000000000000000074
:100683000000000000000000000000000000000067
:100693000000000000000000000000000000000057
:1006A3000000000000000000000000000000000047
:0206B300000045
:100E3E00C100C104C101C10242000B008242002E5A
:100E4E0000AA420030007342002C00004200320023
:100E5E0018410022004200080019420023001842E7
:0B0E6E00000200004400283F8000004C
:100FF900120DFD120DBB12102D12104612106512A2
:0A1009000F541206B5120A9080F889
:03000B00020CFBE9
:100CFB00C0E0C0F0C083C082C0D075D000C000C0BF
:100D0B0001C002C003C004C005C006C007758A231A
:100D1B00758CFF90001BE004F0700690001AE00445
:100D2B00F090001DE004F0700690001CE004F090C1
:100D3B00000BE0FEA3E0FF120FB612033E7F887E8E
:100D4B0013120EEB1209D9D007D006D005D004D060
:100D5B0003D002D001D000D0D0D082D083D0F0D03D
:020D6B00E03274
:080BDE00900048EEF0A3EFF0D7
:100BE600C39416EE94004013E024EAF0900048E027
:100BF60034FFF07BFF7A0579438019900048E0FEC8
:100C0600A3E0FFC374169FF0E49E900048F07BFFBC
:100C16007A057945E4FD7F34120F87900048E0FAA3
:100C2600A3E0FB7C007D64FFAE02120B677E007FB3
:100C36000ACFCDCFCECCCE120B67EF2430A3F07CFB
:100C4600007D0AAF03AE02120B67ED2430A3F07BE2
:100C5600017A00794AE4FD7F3A120F877BFF7A0515
:090C66007947E4FD7F46020F8787
:050D6D00FFEE34FFFE63
:040D7200AB07AA061B
:100D76007C007D64120B677E007F0ACFCDCFCECC80
:100D8600CE120B67EF2430900048F0AE02AF037C22
:100D9600007D0A120B67ED2430A3F07B017A0079FF
:100DA600487D027F36120F877BFF7A05794A7D02DE
:050DB6007F42020F87DF
:040FDC007F017E0013
:100FE000D3EF9400EE9400400F7D267C82DCFEDD82
:080FF000FAEF1F70EB1E80E810
:010FF80022D6
:07000300E4FF0FEFB464FB02
:01000A0022D3
:100FB600D390001BE094F490001AE094014004E4FE
:100FC600F0A3F0C390001BE09F90001AE09E500330
:060FD600D29122C291221B
:100EEB00D390001DE09F90001CE09E4012E4F0A305
:100EFB00F090002DE004F0700690002CE004F0EE72
:100F0B00C313FEEF13FFD390001DE09F90001CE076
:060F1B009E4002B2052217
:1009D90020003F20013C20023990002CE0FEA3E0DA
:1009E900FFC39401EE9400500DA3E0FDA3E0900035
:1009F9000BCDF0A3EDF0D3EF9402EE9400401390E9
:100A09000023E0FEA3E0FF900030E0FCA3E0FD122C
:100A19000801300171D390002DE0940290002CE080
:100A29009400400B7D777C007F0C7E00120801D377
:100A390090002DE0940A90002CE09400400B7D7307
:100A49007C007F227E00120801D390002DE09412D1
:100A590090002CE09400402EE4F0A3F0900003E015
:100A690004F07006900002E004F0900002E07004C7
:100A7900A3E06402701090000B04F0A374E0F0E4AA
:070A8900900002F0A3F0222F
:1006B500900020E0FEA3E0FFC39433EE94004003D6
:1006C50002077CC374329FFFE49EFE120BDE90008E
:1006D50020E0FEA3E0FFC374329FFFE49EFEC3EF5C
:1006E5009414EE940050247BFF7A05794E7D047FA7
:1006F50038120F87D3900021E09423900020E094D6
:10070500004008C2B3C2B4C2B5D2B6900020E0FE24
:10071500A3E0FFC374329FFFE49EFEC3EF9414EE83
:100725009400401ED3EF941EEE940050157BFF7A83
:100735000579517D047F38120F87C2B3C2B4D2B593
:10074500C2B6900020E0FEA3E0FFC374329FFFE431
:100755009EFED3EF941EEE9400401C7BFF7A057934
:10076500547D047F38120F87300504D2B38002C24E
:10077500B3D2B4C2B5C2B620001C2001192002169E
:1007850090002CE0FEA3E0FFD39407EE9400400612
:10079500EF24F9120D6D30001690002CE0FEA3E059
:1007A500FFD39403EE94004006EF24FD120D6D3047
:1007B500021AC3900021E09406900020E0940050B6
:1007C5000BC294C202E490002CF0A3F030012C90EF
:1007D500002CE0FEA3E0FFD39405EE94004006EF65
:1007E50024FB120D6D90002CE0FEA3E0FFD3940CCA
:0C07F500EE94004006EF24F4120D6D227B
:100A9000D290120003C29030B2FDC203E4F58DF58E
:100AA0008BC28FD28EA2B2B350FBC28E900013E5E0
:100AB0008DF0900017E58BF0D203300334900013D3
:100AC000E0FF900018E4F0A3EFF0E07F00FE90005C
:100AD00018F0A3EFF0900017E0FDEDFFA3EEF0A3F8
:100AE000EFF07C007D3A120B67900018EEF0A3EF58
:100AF000F0900018E0FEA3E0FF90001EEEF0A3EFE0
:100B0000F0A3E0FCA3E0FDB50709ECB50605E49011
:100B10000011F090001EE0FEA3E0FF6D7002EC6E8D
:100B20006006900011E004F0900011E0C3940340CF
:0C0B30000AE4F0900020EEF0A3EFF022A9
:100DBB0090004B7403F0E4A3F0A37405F07B0CE4F8
:100DCB00FD7F0C1208FE90004B7403F0A3F0A3748C
:100DDB0005F07B0C7D027F0C1208FE90004B740318
:100DEB00F0A37408F0A37405F07B0C7D047F0C0258
:020DFB0008FEF0
:10102D00E4F593F591F5957594FF7592FF7596FF1F
:09103D00C2B3C2B4C2B5C2B622AE
:10104600D293C294E4900025F0900001F0C2902261
:0E106500758911D28CC288D2A9C2A8D2AF223E
:10033E007580F7900051E580F0E054F0F064F060C5
:10034E0073120FDCE580F0E054F0F064F06065E5C8
:10035E0080F0E02489600C24C0601824E06006243C
:10036E00F070408026C200D201C2027D7D7C007FEB
:10037E000A8024C200C201D202E490002CF0A3F045
:10038E00A304F0A37490F0D2948018C201D200C2DC
:10039E00027D967C007F077E00120801E490002CFF
:1003AE00F0A3F0900051E064F06009E580F0E054B5
:1003BE00F0F080EF7580FB900051E580F0E054F096
:1003CE00F064F06073120FDCE580F0E054F0F0643E
:1003DE00F06065E580F0E02485603324C0601C2465
:1003EE00E0600E24F07040900023E4F0A3741680B9
:1003FE0012900023E4F0A374148008900023E4F01C
:10040E00A37411F0900030E4F0A374748011900086
:10041E0023E4F0A37414F0900030E4F0A3747DF0A4
:10042E00E490002CF0A3F0900051E064F06009E538
:10043E0080F0E054F0F080EF7580FD900051E58083
:10044E00F0E054F0F064F0606D120FDCE580F0E047
:10045E0054F0F064F0605FE580F0E02483603D24AA
:10046E00C0602524E0600E24F0703A900023E4F082
:10047E00A374188008900023E4F0A37415F0900084
:10048E0030E4F0A374728011900023E4F0A374168C
:10049E00F0900030E4F0A37473F08002D200E49088
:1004AE00002CF0A3F0900051E064F06009E580F0BC
:1004BE00E054F0F080EF7580FE900051E580F0E0A2
:1004CE0054F0F064F0606D120FDCE580F0E054F053
:1004DE00F064F0605FE580F0E02482603D24C0604F
:1004EE002524E0600E24F0703A900023E4F0A3740B
:1004FE001B8008900023E4F0A37419F0900030E400
:10050E00F0A374718011900023E4F0A37419F0909D
:10051E000030E4F0A37472F08002D200E490002C5C
:10052E00F0A3F0900051E064F06009E580F0E05433
:04053E00F0F080EF6A
:010542002296
:10000E000000000000000000002F000000000700AC
:10001E00070000147F147F1400242A7F2A12006226
:10002E0064081323003649552250000005030000D2
:10003E0000001C224100000041221C000014083E5A
:10004E0008140008083E0808000000A06000000820
:10005E000808080800006060000000201008040274
:10006E00003E5149453E0000427F40000042615132
:10007E004946002141454B31001814127F100027CC
:10008E0045454539003C4A4949300001710905038F
:10009E0000364949493600064949291E00003636C0
:1000AE000000000056360000000814224100001423
:1000BE001414141400004122140800020151090600
:1000CE0000324959513E007C1211127C007F494981
:1000DE004936003E41414122007F4141221C007FB2
:1000EE0049494941007F09090901003E4149497AC0
:1000FE00007F0808087F0000417F4100002040413A
:10010E003F01007F08142241007F40404040007FA5
:10011E00020C027F007F0408107F003E4141413EE9
:10012E00007F09090906003E4151215E007F091931
:10013E0029460046494949310001017F0101003F2E
:10014E004040403F001F2040201F003F4038403FAE
:10015E000063140814630007087008070061514912
:10016E00454300007F41410000552A552A550000A5
:10017E0041417F0000040201020400404040404023
:10018E00000001020400002054545478007F4844BB
:10019E00443800384444442000384444487F0038F2
:1001AE005454541800087E0901020018A4A4A47C1B
:1001BE00007F080404780000447D400000408084E5
:1001CE007D00007F102844000000417F4000007C2D
:1001DE0004180478007C0804047800384444443839
:1001EE0000FC242424180018242418FC007C080485
:1001FE00040800485454542000043F444020003C5E
:10020E004040207C001C2040201C003C4030403CE4
:10021E00004428102844001CA0A0A07C0044645474
:10022E004C441414141414148282BAAAAAABAAAAA7
:10023E00BA8282000F00000E0A0A0A0E00080F0092
:10024E0000FE0A8ABEAAABAABE8A0A0008070008E8
:10025E00090A04040A0908000000303000000000FA
:10026E00000000000000030300000000000000007A
:10027E00FE2222FE0008488808FF08000702020737
:10028E0000000009080F000000F902F84949494929
:10029E00F901FF00000F0003020202020B080F001B
:1002AE0000003030000000000000000000000303DA
:1002BE00000000000000000010FC03086888090A16
:1002CE0008E80800000F0008080B080C0B080800CF
:1002DE002021212121FF21212121200000000008C1
:1002EE00080F00000000000000FE020A12A242A247
:1002FE00120A0200000F080A09080808090A080075
:10030E0010FF1000F494F404FF846500040702004B
:10031E0004040A0403050E00000030300000000043
:10032E0000000000000003030000000000000000B9
:0E105600E4FFFE0FBF00010EBE03F8BFE8F579
:011064002269
:100DFD00C2A0121056D2A0C2A1121056D2A112102A
:100E0D0056E4FD7F21120F2DE4FD7FB9120F2DE465
:100E1D00FD7F06120F2DE4FD7F13120F2DE4FD7FD4
:100E2D0020120F2D120E7AE4FD7F0C120F2DC2A190
:010E3D002292
:100E7A00E4FD7F0C120F2DE4FD7F80120F2DE4900C
:100E8A000048F0A3F07D01E4FF120F2D900049E025
:100E9A0004F07006900048E004F0C3900049E09422
:090EAA00F8900048E0940140DCDE
:010EB300221C
:10101300900050EFF0ED4440FFE4FD120F2D9000DF
:0A10230050E04480FFE4FD020F2DB1
:050EB40090004FEFF07B
:100EB900E024E0F0E4A3F0900050E0FFC394065072
:100EC9002090004FE075F006A4240EF582E5F03479
:100ED90000F583E5822F120F21900050E004F08085
:010EE900D632
:010EEA0022E5
:100F870090004CEBF0A3EAF0A3E9F01210139000E5
:100F97004CE0FBA3E0FAA3E0F9120B3CFF600F1251
:0F0FA7000EB490004DE475F001120BBC80E022F7
:0D08FE0090004AEBF0900048EFF0A3EDF001
:10090B00121013E490004EF090004BE0FF90004E5D
:10091B00E0C39F40030209D8E4A3F090004AE0FD36
:10092B0075F002A4FF90004FE0FCC39FE5F06480DC
:10093B00F8748098506DEC6D702E90004EE0700640
:10094B00900048E0801A90004DE0FF90004AE02FA5
:10095B00FF90004EE0FEEF8EF0A4FF900048E02FDA
:10096B00FFA3E004FD12101390004EE0FF90004C2B
:10097B00E02FFFE433FE90023675F018EF120BD226
:10098B00EE75F018A42583F583C083C08290004FC9
:10099B00E0D082D0832582120F2190004FE004F02B
:1009AB0002092690004EE004F090004DE0FF90000D
:1009BB004AE02FFF90004EE0FEEF8EF0A4FF900078
:0D09CB0048E02FFFA3E0FD121013020913F6
:0109D80022FC
:0C0F2100F582E43583F583E493FF7D0145
:100F2D00C2A1ED7004C2A28002D2A2E4FEEF30E7AE
:100F3D0004D2A38002C2A3C2A4EF25E0FFD2A40E67
:060F4D00EEB408E9D2A198
:010F5300227B
:100F5400E4900034F0A3F0A3F0A3F090003AF0A3DF
:100F6400F0A3F0A3F0A3F0A3F0A3F0A37402F0E4C1
:100F7400A3F0A3F0A3F0A3F0A3F0A3F0900038F043
:030F8400A3F022B5
:10080100900052ECF0A3EDF0AB07AA06900034EA99
:10081100F0A3EBF0D3900021E09B900020E09A4000
:100821004F900034E0FEA3E0FF900037E09FFF907F
:100831000036E09E90003AF0A3EFF090003AE0FC21
:10084100A3E0FD900040E0FEA3E0FF120B559000F5
:1008510046EEF0A3EFF0900046E0FEA3E0FF90002B
:1008610053E02FFF900052E03E90000BF0A3EFF019
:10087100C3900021E09B900020E09A504390003605
:10088100E0FEA3E0FFC3900035E09FFF900034E05D
:100891009E90003AF0FCA3EFF0FD900040E0FEA333
:1008A100E0FF120B55900046EEF0A3EFF0C390006D
:1008B10053E09FFF900052E09E90000BF0A3EFF0F9
:1008C10090003AE0FEA3E0FF900039E02FF09000A5
:1008D10038E03EF0900020E0FFA3E0900036CFF03A
:1008E100A3EFF090003CE0FFA3E0A3CFF0A3EFF073
:0D08F10090003AA3E0FFA3EEF0A3EFF02289
:100C7B00020FF9E493A3F8E493A34003F68001F287
:100C8B0008DFF48029E493A3F85407240CC8C3337A
:100C9B00C4540F4420C8834004F456800146F6DF49
:100CAB00E4800B0102040810204080900E3EE47E8D
:100CBB00019360BCA3FF543F30E509541FFEE4933E
:100CCB00A360010ECF54C025E060A840B8E493A305
:100CDB00FAE493A3F8E493A3C8C582C8CAC583CA30
:100CEB00F0A3C8C582C8CAC583CADFE9DEE780BEE8
:010E79000078
:100B3C00BB010689828A83E0225002E722BBFE02B7
:090B4C00E32289828A83E49322EA
:100B5500EF8DF0A4A8F0CF8CF0A428CE8DF0A42EB4
:020B6500FE226E
:100B6700BC000BBE0029EF8DF084FFADF022E4CC72
:100B7700F875F008EF2FFFEE33FEEC33FCEE9DEC3B
:100B8700984005FCEE9DFE0FD5F0E9E4CEFD22ED81
:100B9700F8F5F0EE8420D21CFEADF075F008EF2FCB
:100BA700FFED33FD4007985006D5F0F222C398FDBC
:050BB7000FD5F0EA2259
:100BBC00C5F0F8A3E028F0C5F0F8E58215827002C4
:060BCC001583E038F02261
:0C0BD200A42582F582E5F03583F583222E
:00000001FF
