:03000000020026D5
:0C002600787FE4F6D8FD75814302006D80
:1001190041542B5253540D0A0041542B43574D4F10
:1001290044453D320D0A0041542B4349504D555821
:100139003D310D0A0041542B434950534552564510
:10014900523D312C383838380D0A0041542B434977
:100159005053454E443D302C380D0A00776169747F
:0F016900696E670A00776F726B696E670D0A0027
:05001C00C100014300DA
:10023200758920759850758DFF858D8B758780D255
:06024200AFD2ACD28E2207
:030023000201785F
:10017800C0E0C0D075D000C00030984BC298742140
:100188002543F8A699E521B4300405438003754357
:1001980000E543D394044014E522B42C0CE523B4C1
:1001A8004307E524B44F02D200754300E543D394D6
:1001B800044014E522B42C0FE523B4430AE524B423
:0E01C8004C05C200754300D000D0D0D0E0320C
:08025E008F993099FDC299222D
:100248001200036010F5993099FDC299740129F9DB
:05025800E43AFA80EB1E
:01025D00227E
:1001D6007FC47E091202147BFF7A01791912024844
:1001E6007FDC7E051202147A0179221202487FF41E
:1001F6007E011202147A0179301202487FF47E01E0
:0E0206001202147A01793E1202487FF47E0142
:10021400EF1FAA0670011E4A6013E4FCFDD3ED949F
:0D022400F4EC940150EA0DBD00010C80F0D7
:0102310022AA
:1000B200C280C291D292D293D2947FC47E0912029C
:1000C200141202327FF47E011201DA3000FD308018
:1000D200201201D630801A7BFF7A01795412020D68
:1000E2007A0179651202487FDC7E051202142080B3
:1000F200E32080D71201D62080D17BFF7A01795488
:1001020012020D7A01796E1202487FDC7E0512021C
:07011200143080E30200CD70
:100032000200B2E493A3F8E493A34003F68001F232
:1000420008DFF48029E493A3F85407240CC8C333CF
:10005200C4540F4420C8834004F456800146F6DF9E
:10006200E4800B010204081020408090001CE47E12
:10007200019360BCA3FF543F30E509541FFEE49393
:10008200A360010ECF54C025E060A840B8E493A35A
:10009200FAE493A3F8E493A3C8C582C8CAC583CA85
:1000A200F0A3C8C582C8CAC583CADFE9DEE780BE3D
:0100210000DE
:10000300BB010689828A83E0225002E722BBFE02FB
:09001300E32289828A83E493222E
:00000001FF
