:1001BB00AD071FED600BE4FEEEC394FA50F20E8018
:0101CB00F73C
:0101CC002210
:0C021100150E150E150E150E150E150E0F
:01021D0022BE
:1001F100AC07AF041CEF60077F5A1201BB80F322EA
:0F020100C2A6D2A5D2A7E580339200C2A7A20061
:0102100022CB
:1001CD0012020140FBC2A6C2A5C2A78F80D2A7C250
:0201DD00A72257
:07023700EF4480FF0201CD3E
:1001DF0012020140FBD2A6C2A5C2A78F80D2A7C22E
:0201EF00A72245
:100142007F381201CD7F031201BB7F081201CD7FE0
:10015200031201BB7F011201CD7F031201BB7F0697
:100162001201CD7F031201BB7F0C1201CD7F03026E
:0201720001BBCF
:09019A0075F00A84E5F02430FD43
:1001A300AC05AB077F0F1201BBAF03120237AF04DD
:0801B3001201DF7F020201F1DD
:10017400D290120211120211C2907F281201BBD236
:100184009012021112021112021112021112021122
:060194001202110202112B
:1000F100E4FF7D0220900AAC050DEC6004E4FE8073
:10010100F312021112021112021112021112021142
:100111001202111202111202111202113090027E0A
:10012100017D02309006AC050DEC70F7ED640160C5
:100131000DE50C25E0F50CEE420C0FBF08B4AF0C39
:01014100229B
:10009000120174D2902090587F02209006AE070F74
:1000A000EE70F77F02309006AE070FEE70F7120089
:1000B000F18F0D1200F1A9071200F1AB071200F148
:1000C000AA071200F1C290120211120211120211BB
:1000D0001202111202111202111202111202111255
:1000E0000211D290EF6009850D08890A8B098A0BED
:0100F00022ED
:100003001200907FC81201BB7D52E4FF1201A37D51
:100013003A7F011201A3E50875F00A842430FD7FBD
:10002300021201A3E5087F0312019A7D257F0412C2
:1000330001A37D547F401201A37D3A7F411201A3A6
:10004300E50975F00A842430FD7F421201A3E50916
:100053007F4312019A7DDF7F441201A37D437F45D5
:100063001201A37D4C7F061201A37D697F07120154
:10007300A37D677F081201A37D687F091201A37D19
:0D008300747F0A1201A37D3A7F0B0201A3D6
:0D021E001201427F141201BB12000380FB8D
:0300000002022BCE
:0C022B00787FE4F6D8FD75812002021EE9
:00000001FF
