:03000000020140BA
:0C014000787FE4F6D8FD75812902018764
:100003000E0C6330303030303030303053303045C8
:0F001300010900010A00010800011A00011B0089
:0B02B3001202901202BE12002680FB17
:0902BE00C284C286C283C28222FE
:10002600E50A64017036F50A751A0120A00D120260
:10003600A620A007D284D286750D3130A007C284CF
:10004600C286750D30308105750E318003750E3010
:1000560012025B751C30752630752930E51A64016D
:10006600702520A00D1202A620A007D284D2867584
:100076000D3130A007C284C286750D3030810575FA
:100086000E318003750E30E5086401705CF5087565
:100096001B01E51DB43107D284C286750D31E51DFD
:1000A600B43007C284C286750D30E51FB43105D25F
:1000B60083750F31E51FB43005C283750F30E52017
:1000C600B43105D282751031E520B43005C282758F
:1000D6001030308105750E318003750E3012025BCB
:1000E600751C30752630752930E51B6401704AE5AC
:1000F6001DB43107D284C286750D31E51DB43007B3
:10010600C284C286750D30E51FB43105D283750FE2
:1001160031E51FB43005C283750F30E520B43105D3
:10012600D282751031E520B43005C28275103030A8
:0A0136008104750E3122750E30228F
:03002300020220B6
:10022000C0E0C0F0C083C082C0D075D000C000C0A4
:1002300001C002C003C004C005C006C0071201CC43
:10024000D007D006D005D004D003D002D001D00012
:0B025000D0D0D082D083D0F0D0E032BC
:1001CC0030984BC298741C2509F8A699E51C644319
:1001DC0070390509E509C3940E4033E51CB443128C
:1001EC00E526B4530DE529B44508750A01E4F51B61
:1001FC00F509E51CB44312E526B44D0DE529B445CB
:10020C0008750801E4F51AF5098000E4F509309940
:04021C0002C299225F
:06025B007B007A00790C23
:100261001202776010F5993099FDC299740129F94C
:05027100E43AFA80EB05
:010276002265
:0C02A6007F147E147DF8DDFEDEFADFF62A
:0102B2002229
:10029000758920759850758DFD858D8BE4F587D215
:0602A000AFD2ACD28E22A9
:10014C000202B3E493A3F8E493A34003F68001F214
:10015C0008DFF48029E493A3F85407240CC8C333B4
:10016C00C4540F4420C8834004F456800146F6DF83
:10017C00E4800B0102040810204080900003E47E10
:10018C00019360BCA3FF543F30E509541FFEE49378
:10019C00A360010ECF54C025E060A840B8E493A33F
:1001AC00FAE493A3F8E493A3C8C582C8CAC583CA6A
:1001BC00F0A3C8C582C8CAC583CADFE9DEE780BE22
:0100220000DD
:10027700BB010689828A83E0225002E722BBFE0285
:09028700E32289828A83E49322B8
:00000001FF
