:020000000125D8
:1000230021417580FF758920758DFD759850D28E9D
:10003300D2ACD2AF120059E534120135E5351201C5
:1000430035E532120135E533120135E53612013556
:1000530012010C020037C2A074241200FDD2A012B8
:10006300010512010512010512010520A04075309A
:10007300000530E53020A006B400F60200B175306B
:10008300000530E53030A006B400F60200B11200DE
:10009300B28531341200B28531351200B285313266
:1000A3001200B28531331200B2853136D2A02275E7
:1000B30038087531007530000530E53020A006B4EE
:1000C30000F60200FC120105120105120105753745
:1000D3000030A0037537017530000530E53030A0DE
:1000E30006B400F60200FCE530B400030200FCE5B0
:1000F30031234537F531D538BC22FC7DFFDDFEDCED
:10010300FA220000000000002274FA1200FD74FAC3
:100113001200FD74FA1200FD74FA1200FD74FA1253
:1001230000FD74FA1200FD74FA1200FD74FA120055
:10013300FD22C2ACF5993099FDC299D2AC22C2AC72
:100143003098FDC298E599F580F5993099FDC299EB
:03015300D2AC32F9
:00000001FF
