:100386000E1364303030303030303030533030453A
:0F039600010B00010E00010A00012100012200ED
:10000E001203F712040912036612041612040912DF
:04001E00002680FB3D
:09041600C280C281D282C283229D
:10002600E50E64017046F50E7521017F011203DDB0
:100036001201BBD3E5329432E53194004009D281F6
:10004600D2807514318007C281C280751430208237
:1000560009120409208203751531308203751530A3
:100066001203A6752330752D30753030E5216401F5
:1000760070357F011203DD1201BBD3E5329464E5CE
:100086003194004009D281D2807514318007C28133
:10009600C280751430208209120409208203751566
:1000A60031308203751530E50A64017043F50A752F
:1000B60022017F011203DD1201BBE524B43107D210
:1000C60081751431C280E524B43007C281751430BD
:1000D600C2802082091204092082037515313082FC
:1000E600037515301203A6752330752D3075303023
:1000F600E522640170327F011203DD1201BBE524A3
:10010600B43107D281751431C280E524B43007C2F8
:1001160081751430C2802082091204092082037579
:09012600153130820375153022F9
:03000B0002033EAF
:04033E00C0E0C0D08B
:10034200758CF8758A2F0509E50970020508D394A2
:0F035200F4E50894014008750800750900B283AE
:05036100D0D0D0E03215
:03002300020303D2
:10030300C0E0C0F0C083C082C0D075D000C000C0C0
:1003130001C002C003C004C005C006C0071202AD7D
:10032300D007D006D005D004D003D002D001D0002E
:0B033300D0D0D082D083D0F0D0E032D8
:1002AD00B28330984BC2987423250BF8A699E52399
:1002BD0064447039050BE50BC3940E4033E523B44C
:1002CD004412E52DB4530DE530B44508750E01E427
:1002DD00F522F50BE523B44412E52DB44D0DE530B3
:1002ED00B44508750A01E4F521F50B8000E4F50B22
:0602FD00309902C29922B3
:10036600758921759850758DFD858D8B758CF87501
:100376008A2FE4F587D2AFD2ACD28CD2A9D28E2204
:0603A6007B007A007913D0
:1003AC0012023F6010F5993099FDC299740129F938
:0503BC00E43AFA80EBB9
:0103C1002219
:0401BB008E318F32C0
:1001BF00AB07AA067C277D10120258EF2430F511E9
:1001CF007C277D10AF03AE021202587E037FE8CF6B
:1001DF00CDCFCECCCE120258EF2430F50CF5167CD5
:1001EF00037DE8AF03AE021202587E007F64CFCDCD
:1001FF00CFCECCCE120258EF2430F50DF5177C0080
:10020F007D64AF03AE021202587E007F0ACFCDCFBE
:10021F00CECCCE120258EF2430F510F518AE02AF47
:10022F00037C007D0A120258ED2430F512F51922D5
:1003DD00EF4488F5BC00000000E5BC30E4FB53BCE5
:0903ED00EFAFBDEFFEADBEEDFF68
:0103F60022E4
:1003F700759DFF43A204E4F5BD75BC807F02FE0234
:0204070003C22E
:1003C200EF1FAA0670011E4A60107C137D88ED1D86
:0A03D200AA0470011C4A60E880F4E0
:0103DC0022FE
:0C0409007F147E147DF8DDFEDEFADFF6C5
:0104150022C4
:0300000002012FCB
:0C012F00787FE4F6D8FD7581320201767D
:10023F00BB010689828A83E0225002E722BBFE02BD
:09024F00E32289828A83E49322F0
:10025800BC000BBE0029EF8DF084FFADF022E4CC8A
:10026800F875F008EF2FFFEE33FEEC33FCEE9DEC53
:10027800984005FCEE9DFE0FD5F0E9E4CEFD22ED99
:10028800F8F5F0EE8420D21CFEADF075F008EF2FE3
:10029800FFED33FD4007985006D5F0F222C398FDD4
:0502A8000FD5F0EA2271
:10013B0002000EE493A3F8E493A34003F68001F2CC
:10014B0008DFF48029E493A3F85407240CC8C333C5
:10015B00C4540F4420C8834004F456800146F6DF94
:10016B00E4800B0102040810204080900386E47E9B
:10017B00019360BCA3FF543F30E509541FFEE49389
:10018B00A360010ECF54C025E060A840B8E493A350
:10019B00FAE493A3F8E493A3C8C582C8CAC583CA7B
:1001AB00F0A3C8C582C8CAC583CADFE9DEE780BE33
:0103A5000057
:00000001FF
